:1000000018ED01E01CBF07BF18ED04E01CBF06BFE0
:100010000FE50DBF01D0F4CF0DEF05BF109A119879
:1000200003E001B900E80DBB03E00BBB02E00BBB32
:1000300004E007BB41D0FD34A0F0FA3908F4FACF50
:1000400003E00A9521F038D0FA39D8F70895119ACB
:10005000F1E02AD01198F4E027D02ED0FA39B8F781
:10006000089503E00A9521F027D0FD34D8F30895D0
:100070000F938F939F93F3E4E0EC01918FEF9191B5
:1000800022D00A95E1F78FEF882319F00000109A2B
:1000900003C0109800000000119AF1E005D01198FB
:1000A0009F918F910F9108950F9300270A95F1F773
:1000B000FA95D9F70F910895F0ECFDBBFDB3F6FD6D
:1000C000FDCFF9B308958095990F882319F00000AA
:1000D000109A03C010980000000008F4809588234F
:1000E00019F00000109A03C01098000000008095DD
:1000F000990F882319F00000109A03C0109800008F
:10010000000008F48095882319F00000109A03C0BD
:100110001098000000008095990F882319F00000C6
:10012000109A03C010980000000008F480958823FE
:1001300019F00000109A03C010980000000080958C
:10014000990F882319F00000109A03C0109800003E
:10015000000008F48095882319F00000109A03C06D
:100160001098000000008095990F882319F0000076
:10017000109A03C010980000000008F480958823AE
:1001800019F00000109A03C010980000000080953C
:10019000990F882319F00000109A03C010980000EE
:1001A000000008F48095882319F00000109A03C01D
:1001B0001098000000008095990F882319F0000026
:1001C000109A03C010980000000008F4809588235E
:1001D00019F00000109A03C01098000000008095EC
:1001E000990F882319F00000109A03C0109800009E
:1001F000000008F48095882319F00000109A03C0CD
:080200001098000000000895B1
:00000001FF
